{
  "contractName": "StateAssertionChannels",
  "abi": [
    {
      "constant": true,
      "inputs": [],
      "name": "status",
      "outputs": [
        {
          "name": "",
          "type": "uint8"
        }
      ],
      "payable": false,
      "stateMutability": "view",
      "type": "function"
    },
    {
      "constant": true,
      "inputs": [],
      "name": "assertion",
      "outputs": [
        {
          "name": "sender",
          "type": "address"
        },
        {
          "name": "prevhstate",
          "type": "bytes32"
        },
        {
          "name": "newhstate",
          "type": "bytes32"
        },
        {
          "name": "input",
          "type": "bytes"
        },
        {
          "name": "cmd",
          "type": "uint256"
        }
      ],
      "payable": false,
      "stateMutability": "view",
      "type": "function"
    },
    {
      "constant": true,
      "inputs": [],
      "name": "firstturn",
      "outputs": [
        {
          "name": "",
          "type": "address"
        }
      ],
      "payable": false,
      "stateMutability": "view",
      "type": "function"
    },
    {
      "constant": true,
      "inputs": [
        {
          "name": "",
          "type": "uint256"
        }
      ],
      "name": "plist",
      "outputs": [
        {
          "name": "",
          "type": "address"
        }
      ],
      "payable": false,
      "stateMutability": "view",
      "type": "function"
    },
    {
      "constant": true,
      "inputs": [],
      "name": "bestRound",
      "outputs": [
        {
          "name": "",
          "type": "uint256"
        }
      ],
      "payable": false,
      "stateMutability": "view",
      "type": "function"
    },
    {
      "constant": true,
      "inputs": [],
      "name": "disputePeriod",
      "outputs": [
        {
          "name": "",
          "type": "uint256"
        }
      ],
      "payable": false,
      "stateMutability": "view",
      "type": "function"
    },
    {
      "constant": true,
      "inputs": [],
      "name": "bond",
      "outputs": [
        {
          "name": "",
          "type": "uint256"
        }
      ],
      "payable": false,
      "stateMutability": "view",
      "type": "function"
    },
    {
      "constant": true,
      "inputs": [],
      "name": "hstate",
      "outputs": [
        {
          "name": "",
          "type": "bytes32"
        }
      ],
      "payable": false,
      "stateMutability": "view",
      "type": "function"
    },
    {
      "constant": true,
      "inputs": [],
      "name": "app",
      "outputs": [
        {
          "name": "",
          "type": "address"
        }
      ],
      "payable": false,
      "stateMutability": "view",
      "type": "function"
    },
    {
      "inputs": [
        {
          "name": "party1",
          "type": "address"
        },
        {
          "name": "party2",
          "type": "address"
        },
        {
          "name": "_disputePeriod",
          "type": "uint256"
        },
        {
          "name": "_app",
          "type": "address"
        },
        {
          "name": "_bond",
          "type": "uint256"
        }
      ],
      "payable": false,
      "stateMutability": "nonpayable",
      "type": "constructor"
    },
    {
      "anonymous": false,
      "inputs": [
        {
          "indexed": false,
          "name": "asserter",
          "type": "address"
        },
        {
          "indexed": false,
          "name": "prevhstate",
          "type": "bytes32"
        },
        {
          "indexed": false,
          "name": "hstate",
          "type": "bytes32"
        },
        {
          "indexed": false,
          "name": "command",
          "type": "uint256"
        },
        {
          "indexed": false,
          "name": "input",
          "type": "bytes"
        }
      ],
      "name": "EventAssert",
      "type": "event"
    },
    {
      "anonymous": false,
      "inputs": [
        {
          "indexed": true,
          "name": "bestround",
          "type": "uint256"
        }
      ],
      "name": "EventTimeout",
      "type": "event"
    },
    {
      "anonymous": false,
      "inputs": [
        {
          "indexed": true,
          "name": "bestround",
          "type": "uint256"
        },
        {
          "indexed": false,
          "name": "hstate",
          "type": "bytes32"
        }
      ],
      "name": "EventEvidence",
      "type": "event"
    },
    {
      "anonymous": false,
      "inputs": [
        {
          "indexed": true,
          "name": "bestround",
          "type": "uint256"
        },
        {
          "indexed": false,
          "name": "hstate",
          "type": "bytes32"
        }
      ],
      "name": "EventClose",
      "type": "event"
    },
    {
      "constant": false,
      "inputs": [],
      "name": "depost",
      "outputs": [],
      "payable": true,
      "stateMutability": "payable",
      "type": "function"
    },
    {
      "constant": false,
      "inputs": [
        {
          "name": "_sigs",
          "type": "uint256[]"
        },
        {
          "name": "_i",
          "type": "uint256"
        },
        {
          "name": "_firstturn",
          "type": "address"
        },
        {
          "name": "_hstate",
          "type": "bytes32"
        }
      ],
      "name": "setstate",
      "outputs": [],
      "payable": false,
      "stateMutability": "nonpayable",
      "type": "function"
    },
    {
      "constant": false,
      "inputs": [
        {
          "name": "_prevhstate",
          "type": "bytes32"
        },
        {
          "name": "_newhstate",
          "type": "bytes32"
        },
        {
          "name": "_input",
          "type": "bytes"
        },
        {
          "name": "_command",
          "type": "uint256"
        }
      ],
      "name": "assertState",
      "outputs": [],
      "payable": true,
      "stateMutability": "payable",
      "type": "function"
    },
    {
      "constant": false,
      "inputs": [],
      "name": "triggerdispute",
      "outputs": [],
      "payable": true,
      "stateMutability": "payable",
      "type": "function"
    },
    {
      "constant": false,
      "inputs": [
        {
          "name": "_input",
          "type": "bytes"
        },
        {
          "name": "_newhstate",
          "type": "bytes32"
        },
        {
          "name": "_command",
          "type": "uint256"
        }
      ],
      "name": "triggerdispute",
      "outputs": [],
      "payable": true,
      "stateMutability": "payable",
      "type": "function"
    },
    {
      "constant": false,
      "inputs": [
        {
          "name": "_oldstate",
          "type": "bytes"
        }
      ],
      "name": "challengeCommand",
      "outputs": [],
      "payable": false,
      "stateMutability": "nonpayable",
      "type": "function"
    },
    {
      "constant": false,
      "inputs": [
        {
          "name": "balance1",
          "type": "uint256"
        },
        {
          "name": "balance2",
          "type": "uint256"
        }
      ],
      "name": "resolve",
      "outputs": [],
      "payable": false,
      "stateMutability": "nonpayable",
      "type": "function"
    },
    {
      "constant": false,
      "inputs": [],
      "name": "timeout",
      "outputs": [],
      "payable": false,
      "stateMutability": "nonpayable",
      "type": "function"
    },
    {
      "constant": true,
      "inputs": [
        {
          "name": "pub",
          "type": "address"
        },
        {
          "name": "h",
          "type": "bytes32"
        },
        {
          "name": "v",
          "type": "uint8"
        },
        {
          "name": "r",
          "type": "bytes32"
        },
        {
          "name": "s",
          "type": "bytes32"
        }
      ],
      "name": "verifySignature",
      "outputs": [],
      "payable": false,
      "stateMutability": "pure",
      "type": "function"
    }
  ],
  "bytecode": "0x60806040526000600b5534801561001557600080fd5b5060405160a0806123cb833981018060405260a081101561003557600080fd5b81019080805190602001909291908051906020019092919080519060200190929190805190602001909291908051906020019092919050505060008590806001815401808255809150509060018203906000526020600020016000909192909190916101000a81548173ffffffffffffffffffffffffffffffffffffffff021916908373ffffffffffffffffffffffffffffffffffffffff1602179055505060008490806001815401808255809150509060018203906000526020600020016000909192909190916101000a81548173ffffffffffffffffffffffffffffffffffffffff021916908373ffffffffffffffffffffffffffffffffffffffff1602179055505060018060008773ffffffffffffffffffffffffffffffffffffffff1673ffffffffffffffffffffffffffffffffffffffff16815260200190815260200160002060006101000a81548160ff02191690831515021790555060018060008673ffffffffffffffffffffffffffffffffffffffff1673ffffffffffffffffffffffffffffffffffffffff16815260200190815260200160002060006101000a81548160ff0219169083151502179055506000600a60146101000a81548160ff0219169083600381111561020757fe5b021790555082600d8190555081600f60006101000a81548173ffffffffffffffffffffffffffffffffffffffff021916908373ffffffffffffffffffffffffffffffffffffffff16021790555080600e81905550505050505061215c8061026f6000396000f3fe6080604052600436106100fc576000357c0100000000000000000000000000000000000000000000000000000000900463ffffffff16806302bf9e7f14610101578063200d2ed21461017d5780632a6233d6146101b65780632ab2e8ff1461028e57806339de57d4146102985780633b68898314610367578063445ddf3c146103be578063476e494f146104395780634aadb4f9146104645780635bf31d4d1461052c57806364c9ec6f1461055757806370dea79a1461058257806382dbab731461059957806384f0c2da146105c457806394340cca1461069d578063b76564bd146106a7578063d1691a6f146106fe578063d819fcc814610743575b600080fd5b34801561010d57600080fd5b5061017b600480360360a081101561012457600080fd5b81019080803573ffffffffffffffffffffffffffffffffffffffff16906020019092919080359060200190929190803560ff169060200190929190803590602001909291908035906020019092919050505061083c565b005b34801561018957600080fd5b506101926108e9565b604051808260038111156101a257fe5b60ff16815260200191505060405180910390f35b3480156101c257600080fd5b506101cb6108fc565b604051808673ffffffffffffffffffffffffffffffffffffffff1673ffffffffffffffffffffffffffffffffffffffff16815260200185815260200184815260200180602001838152602001828103825284818151815260200191508051906020019080838360005b8381101561024f578082015181840152602081019050610234565b50505050905090810190601f16801561027c5780820380516001836020036101000a031916815260200191505b50965050505050505060405180910390f35b6102966109d8565b005b610365600480360360608110156102ae57600080fd5b81019080803590602001906401000000008111156102cb57600080fd5b8201836020820111156102dd57600080fd5b803590602001918460018302840111640100000000831117156102ff57600080fd5b91908080601f016020809104026020016040519081016040528093929190818152602001838380828437600081840152601f19601f8201169050808301925050505050505091929192908035906020019092919080359060200190929190505050610a99565b005b34801561037357600080fd5b5061037c610c8a565b604051808273ffffffffffffffffffffffffffffffffffffffff1673ffffffffffffffffffffffffffffffffffffffff16815260200191505060405180910390f35b3480156103ca57600080fd5b506103f7600480360360208110156103e157600080fd5b8101908080359060200190929190505050610cb0565b604051808273ffffffffffffffffffffffffffffffffffffffff1673ffffffffffffffffffffffffffffffffffffffff16815260200191505060405180910390f35b34801561044557600080fd5b5061044e610cee565b6040518082815260200191505060405180910390f35b34801561047057600080fd5b5061052a6004803603602081101561048757600080fd5b81019080803590602001906401000000008111156104a457600080fd5b8201836020820111156104b657600080fd5b803590602001918460018302840111640100000000831117156104d857600080fd5b91908080601f016020809104026020016040519081016040528093929190818152602001838380828437600081840152601f19601f820116905080830192505050505050509192919290505050610cf4565b005b34801561053857600080fd5b506105416110a3565b6040518082815260200191505060405180910390f35b34801561056357600080fd5b5061056c6110a9565b6040518082815260200191505060405180910390f35b34801561058e57600080fd5b506105976110af565b005b3480156105a557600080fd5b506105ae6111ad565b6040518082815260200191505060405180910390f35b61069b600480360360808110156105da57600080fd5b8101908080359060200190929190803590602001909291908035906020019064010000000081111561060b57600080fd5b82018360208201111561061d57600080fd5b8035906020019184600183028401116401000000008311171561063f57600080fd5b91908080601f016020809104026020016040519081016040528093929190818152602001838380828437600081840152601f19601f820116905080830192505050505050509192919290803590602001909291905050506111b3565b005b6106a561154a565b005b3480156106b357600080fd5b506106bc61174a565b604051808273ffffffffffffffffffffffffffffffffffffffff1673ffffffffffffffffffffffffffffffffffffffff16815260200191505060405180910390f35b34801561070a57600080fd5b506107416004803603604081101561072157600080fd5b810190808035906020019092919080359060200190929190505050611770565b005b34801561074f57600080fd5b5061083a6004803603608081101561076657600080fd5b810190808035906020019064010000000081111561078357600080fd5b82018360208201111561079557600080fd5b803590602001918460208302840111640100000000831117156107b757600080fd5b919080806020026020016040519081016040528093929190818152602001838360200280828437600081840152601f19601f82011690508083019250505050505050919291929080359060200190929190803573ffffffffffffffffffffffffffffffffffffffff16906020019092919080359060200190929190505050611931565b005b600060018585858560405160008152602001604052604051808581526020018460ff1660ff1681526020018381526020018281526020019450505050506020604051602081039080840390855afa15801561089b573d6000803e3d6000fd5b5050506020604051035190508073ffffffffffffffffffffffffffffffffffffffff168673ffffffffffffffffffffffffffffffffffffffff161415156108e157600080fd5b505050505050565b600a60149054906101000a900460ff1681565b60058060000160009054906101000a900473ffffffffffffffffffffffffffffffffffffffff1690806001015490806002015490806003018054600181600116156101000203166002900480601f0160208091040260200160405190810160405280929190818152602001828054600181600116156101000203166002900480156109c85780601f1061099d576101008083540402835291602001916109c8565b820191906000526020600020905b8154815290600101906020018083116109ab57829003601f168201915b5050505050908060040154905085565b600160003373ffffffffffffffffffffffffffffffffffffffff1673ffffffffffffffffffffffffffffffffffffffff16815260200190815260200160002060009054906101000a900460ff1615610a925760016003811115610a3757fe5b600a60149054906101000a900460ff166003811115610a5257fe5b141515610a5e57600080fd5b6002600a60146101000a81548160ff02191690836003811115610a7d57fe5b0217905550600d544301600481905550610a97565b600080fd5b565b600160003373ffffffffffffffffffffffffffffffffffffffff1673ffffffffffffffffffffffffffffffffffffffff16815260200190815260200160002060009054906101000a900460ff1615610c805760016003811115610af857fe5b600a60149054906101000a900460ff166003811115610b1357fe5b141515610b1f57600080fd5b3373ffffffffffffffffffffffffffffffffffffffff16600a60009054906101000a900473ffffffffffffffffffffffffffffffffffffffff1673ffffffffffffffffffffffffffffffffffffffff16141515610b7b57600080fd5b6002600a60146101000a81548160ff02191690836003811115610b9a57fe5b021790555060a0604051908101604052803073ffffffffffffffffffffffffffffffffffffffff16815260200160006001028152602001600060010281526020018481526020016000815250600560008201518160000160006101000a81548173ffffffffffffffffffffffffffffffffffffffff021916908373ffffffffffffffffffffffffffffffffffffffff16021790555060208201518160010155604082015181600201556060820151816003019080519060200190610c5f929190612043565b5060808201518160040155905050610c7b600c548385846111b3565b610c85565b600080fd5b505050565b600a60009054906101000a900473ffffffffffffffffffffffffffffffffffffffff1681565b600081815481101515610cbf57fe5b906000526020600020016000915054906101000a900473ffffffffffffffffffffffffffffffffffffffff1681565b600b5481565b600160003373ffffffffffffffffffffffffffffffffffffffff1673ffffffffffffffffffffffffffffffffffffffff16815260200190815260200160002060009054906101000a900460ff161561109b5760026003811115610d5357fe5b600a60149054906101000a900460ff166003811115610d6e57fe5b141515610d7a57600080fd5b3373ffffffffffffffffffffffffffffffffffffffff16600560000160009054906101000a900473ffffffffffffffffffffffffffffffffffffffff1673ffffffffffffffffffffffffffffffffffffffff1614151515610dda57600080fd5b806040516020018082805190602001908083835b602083101515610e135780518252602082019150602081019050602083039250610dee565b6001836020036101000a03801982511681845116808217855250505050505090500191505060405160208183030381529060405280519060200120600560010154141515610e6057600080fd5b6000600f60009054906101000a900473ffffffffffffffffffffffffffffffffffffffff1673ffffffffffffffffffffffffffffffffffffffff16634eb82e9a338460056003016005600401546040518563ffffffff167c0100000000000000000000000000000000000000000000000000000000028152600401808573ffffffffffffffffffffffffffffffffffffffff1673ffffffffffffffffffffffffffffffffffffffff1681526020018060200180602001848152602001838103835286818151815260200191508051906020019080838360005b83811015610f54578082015181840152602081019050610f39565b50505050905090810190601f168015610f815780820380516001836020036101000a031916815260200191505b508381038252858181546001816001161561010002031660029004815260200191508054600181600116156101000203166002900480156110035780601f10610fd857610100808354040283529160200191611003565b820191906000526020600020905b815481529060010190602001808311610fe657829003601f168201915b5050965050505050505060206040518083038186803b15801561102557600080fd5b505afa158015611039573d6000803e3d6000fd5b505050506040513d602081101561104f57600080fd5b8101908080519060200190929190505050905060056002015481141515611095576003600a60146101000a81548160ff0219169083600381111561108f57fe5b02179055505b506110a0565b600080fd5b50565b600d5481565b600e5481565b600160003373ffffffffffffffffffffffffffffffffffffffff1673ffffffffffffffffffffffffffffffffffffffff16815260200190815260200160002060009054906101000a900460ff16156111a657600454431015151561111257600080fd5b6002600381111561111f57fe5b600a60149054906101000a900460ff16600381111561113a57fe5b14151561114657600080fd5b6003600a60146101000a81548160ff0219169083600381111561116557fe5b0217905550611172611c4a565b600b547f0ded605a6fe090c7055b05e964174696271b57b7f9b6e571fb2e74f6b668523660405160405180910390a26111ab565b600080fd5b565b600c5481565b600160003373ffffffffffffffffffffffffffffffffffffffff1673ffffffffffffffffffffffffffffffffffffffff16815260200190815260200160002060009054906101000a900460ff161561153f576002600381111561121257fe5b600a60149054906101000a900460ff16600381111561122d57fe5b14151561123957600080fd5b8360056001015414151561124c57600080fd5b3373ffffffffffffffffffffffffffffffffffffffff16600560000160009054906101000a900473ffffffffffffffffffffffffffffffffffffffff1673ffffffffffffffffffffffffffffffffffffffff16141515156112ac57600080fd5b34600260003373ffffffffffffffffffffffffffffffffffffffff1673ffffffffffffffffffffffffffffffffffffffff1681526020019081526020016000205401600260003373ffffffffffffffffffffffffffffffffffffffff1673ffffffffffffffffffffffffffffffffffffffff16815260200190815260200160002081905550600e54600260003373ffffffffffffffffffffffffffffffffffffffff1673ffffffffffffffffffffffffffffffffffffffff1681526020019081526020016000205414151561138057600080fd5b60a0604051908101604052803373ffffffffffffffffffffffffffffffffffffffff168152602001600c54815260200184815260200183815260200182815250600560008201518160000160006101000a81548173ffffffffffffffffffffffffffffffffffffffff021916908373ffffffffffffffffffffffffffffffffffffffff16021790555060208201518160010155604082015181600201556060820151816003019080519060200190611439929190612043565b5060808201518160040155905050600d5443016004819055507f52921a314d51f3473ada9c38b12b6a329567c7c926b417678ae8ddd74eeb44ae3385858486604051808673ffffffffffffffffffffffffffffffffffffffff1673ffffffffffffffffffffffffffffffffffffffff16815260200185815260200184815260200183815260200180602001828103825283818151815260200191508051906020019080838360005b838110156114fc5780820151818401526020810190506114e1565b50505050905090810190601f1680156115295780820380516001836020036101000a031916815260200191505b50965050505050505060405180910390a1611544565b600080fd5b50505050565b600160003373ffffffffffffffffffffffffffffffffffffffff1673ffffffffffffffffffffffffffffffffffffffff16815260200190815260200160002060009054906101000a900460ff16156117435734600360003373ffffffffffffffffffffffffffffffffffffffff1673ffffffffffffffffffffffffffffffffffffffff1681526020019081526020016000205401600360003373ffffffffffffffffffffffffffffffffffffffff1673ffffffffffffffffffffffffffffffffffffffff168152602001908152602001600020819055506003600080600181548110151561163457fe5b9060005260206000200160009054906101000a900473ffffffffffffffffffffffffffffffffffffffff1673ffffffffffffffffffffffffffffffffffffffff1673ffffffffffffffffffffffffffffffffffffffff16815260200190815260200160002054600360008060008154811015156116ad57fe5b9060005260206000200160009054906101000a900473ffffffffffffffffffffffffffffffffffffffff1673ffffffffffffffffffffffffffffffffffffffff1673ffffffffffffffffffffffffffffffffffffffff16815260200190815260200160002054141561173e576001600a60146101000a81548160ff0219169083600381111561173857fe5b02179055505b611748565b600080fd5b565b600f60009054906101000a900473ffffffffffffffffffffffffffffffffffffffff1681565b600160003373ffffffffffffffffffffffffffffffffffffffff1673ffffffffffffffffffffffffffffffffffffffff16815260200190815260200160002060009054906101000a900460ff161561192857600260038111156117cf57fe5b600a60149054906101000a900460ff1660038111156117ea57fe5b141561185557600560000160009054906101000a900473ffffffffffffffffffffffffffffffffffffffff1673ffffffffffffffffffffffffffffffffffffffff163373ffffffffffffffffffffffffffffffffffffffff161415151561185057600080fd5b61188a565b6001600381111561186257fe5b600a60149054906101000a900460ff16600381111561187d57fe5b14151561188957600080fd5b5b8181604051602001808381526020018281526020019250505060405160208183030381529060405280519060200120600c541415156118c857600080fd5b6003600a60146101000a81548160ff021916908360038111156118e757fe5b02179055506118f4611c4a565b600b547f0ded605a6fe090c7055b05e964174696271b57b7f9b6e571fb2e74f6b668523660405160405180910390a261192d565b600080fd5b5050565b600b548311151561194157600080fd5b600081848430604051602001808581526020018481526020018373ffffffffffffffffffffffffffffffffffffffff1673ffffffffffffffffffffffffffffffffffffffff166c010000000000000000000000000281526014018273ffffffffffffffffffffffffffffffffffffffff1673ffffffffffffffffffffffffffffffffffffffff166c0100000000000000000000000002815260140194505050505060405160208183030381529060405280519060200120905060606040805190810160405280601c81526020017f19457468657265756d205369676e6564204d6573736167653a0a333200000000815250905080826040516020018083805190602001908083835b602083101515611a6e5780518252602082019150602081019050602083039250611a49565b6001836020036101000a0380198251168184511680821785525050505050509050018281526020019250505060405160208183030381529060405280519060200120915060008090505b600080549050811015611b8a576000601b8860006003850201815181101515611add57fe5b9060200190602002015101905060008860016003850201815181101515611b0057fe5b90602001906020020151600102905060008960026003860201815181101515611b2557fe5b906020019060200201516001029050611b7a600085815481101515611b4657fe5b9060005260206000200160009054906101000a900473ffffffffffffffffffffffffffffffffffffffff168785858561083c565b5050508080600101915050611ab8565b506001600a60146101000a81548160ff02191690836003811115611baa57fe5b021790555084600b8190555082600c8190555083600a60006101000a81548173ffffffffffffffffffffffffffffffffffffffff021916908373ffffffffffffffffffffffffffffffffffffffff160217905550611c06611e52565b600b547fbfed543fce167ec10d36e8be2db30aacbe1c6192efa6a7d0ee41c59a5b74cb66600c546040518082815260200191505060405180910390a2505050505050565b6000806000815481101515611c5b57fe5b9060005260206000200160009054906101000a900473ffffffffffffffffffffffffffffffffffffffff1673ffffffffffffffffffffffffffffffffffffffff16600560000160009054906101000a900473ffffffffffffffffffffffffffffffffffffffff1673ffffffffffffffffffffffffffffffffffffffff161415611d205760006001815481101515611cee57fe5b9060005260206000200160009054906101000a900473ffffffffffffffffffffffffffffffffffffffff169050611df1565b60006001815481101515611d3057fe5b9060005260206000200160009054906101000a900473ffffffffffffffffffffffffffffffffffffffff1673ffffffffffffffffffffffffffffffffffffffff16600560000160009054906101000a900473ffffffffffffffffffffffffffffffffffffffff1673ffffffffffffffffffffffffffffffffffffffff161415611df057600080815481101515611dc257fe5b9060005260206000200160009054906101000a900473ffffffffffffffffffffffffffffffffffffffff1690505b5b8073ffffffffffffffffffffffffffffffffffffffff166108fc3073ffffffffffffffffffffffffffffffffffffffff16319081150290604051600060405180830381858888f19350505050158015611e4e573d6000803e3d6000fd5b5050565b60008090505b600080549050811015611fec576000600260008084815481101515611e7957fe5b9060005260206000200160009054906101000a900473ffffffffffffffffffffffffffffffffffffffff1673ffffffffffffffffffffffffffffffffffffffff1673ffffffffffffffffffffffffffffffffffffffff1681526020019081526020016000205490506000600260008085815481101515611ef557fe5b9060005260206000200160009054906101000a900473ffffffffffffffffffffffffffffffffffffffff1673ffffffffffffffffffffffffffffffffffffffff1673ffffffffffffffffffffffffffffffffffffffff16815260200190815260200160002081905550600082815481101515611f6d57fe5b9060005260206000200160009054906101000a900473ffffffffffffffffffffffffffffffffffffffff1673ffffffffffffffffffffffffffffffffffffffff166108fc829081150290604051600060405180830381858888f19350505050158015611fdd573d6000803e3d6000fd5b50508080600101915050611e58565b506005600080820160006101000a81549073ffffffffffffffffffffffffffffffffffffffff02191690556001820160009055600282016000905560038201600061203791906120c3565b60048201600090555050565b828054600181600116156101000203166002900490600052602060002090601f016020900481019282601f1061208457805160ff19168380011785556120b2565b828001600101855582156120b2579182015b828111156120b1578251825591602001919060010190612096565b5b5090506120bf919061210b565b5090565b50805460018160011615610100020316600290046000825580601f106120e95750612108565b601f016020900490600052602060002090810190612107919061210b565b5b50565b61212d91905b80821115612129576000816000905550600101612111565b5090565b9056fea165627a7a72305820a1db9b4466fc08b06279eefb032ec32037999be87eeeb52c57946499d12293bc0029",
  "source": "pragma solidity ^0.5.0;\n \ncontract App {\n   \n    // Returns new state hash, coins for player1 to withdraw and coins for player2 to withdraw.\n    function transition(address payable signer, bytes memory oldstate, bytes memory input, uint command) public pure returns (bytes32 newhstate);\n \n}\n \ncontract StateAssertionChannels {\n   \n    address payable[] public plist; // list of parties in our channel\n    mapping (address => bool) pmap; // List of players in this channel!\n    mapping (address => uint) bonds; // List of bonds to be refunded\n    mapping (address => uint) balance; // List of bonds to be refunded\n   \n    struct Assertion {\n        address sender;\n        bytes32 prevhstate;\n        bytes32 newhstate;\n        bytes input;\n        uint cmd;\n    }\n \n    uint deadline;\n   \n    Assertion public assertion;\n    address public firstturn;\n \n    enum Status {DEPOSIT, ON, DISPUTE, PAYOUT}\n   \n    Status public status;\n \n    uint256 public bestRound = 0;\n    bytes32 public hstate;\n    uint256 public disputePeriod;\n   \n    // Why is bond important?\n    // An honest user should always be refudnded for  challenging. Even if they get all coins in the app.\n    uint256 public bond;\n   \n    // address of contract app\n    App public app;\n \n    event EventAssert (address asserter, bytes32 prevhstate, bytes32 hstate, uint command, bytes input);\n    event EventTimeout (uint256 indexed bestround);\n    event EventEvidence (uint256 indexed bestround, bytes32 hstate);\n    event EventClose (uint256 indexed bestround, bytes32 hstate);\n \n    modifier onlyplayers { if (pmap[msg.sender]) _; else revert(); }\n     \n    // The application creates this state channel and updates it with the list of players.\n    // Also sets a fixed dispute period.\n    // We assume the app is keeping track of each party's balance (and it is holding their coins).\n    // --> This can be tweaked so the state channel holds the coins, and app tracks the balance,\n    // --> channel must instantatiate app - too much work for demo.\n    constructor(address payable party1, address payable party2, uint _disputePeriod, address _app, uint _bond) public {\n \n        plist.push(party1);\n        plist.push(party2);\n        pmap[party1] = true;\n        pmap[party2] = true;\n       \n        status = Status.DEPOSIT;\n \n        disputePeriod = _disputePeriod;\n        app = App(_app);\n        bond = _bond;\n    }\n \n    // Both parties need to deposit coins.\n    // Equal value turns on channel.\n    function depost() public payable onlyplayers {\n        balance[msg.sender] = balance[msg.sender] + msg.value;\n        if(balance[plist[0]] == balance[plist[1]]) {\n            status = Status.ON;\n        }\n    }\n   \n    // Set latest agreed state off-chain (can cancel commands in process)\n    function setstate(uint256[] memory _sigs, uint256 _i, address _firstturn, bytes32 _hstate) public {\n        require(_i > bestRound);\n \n        // Commitment to signed message for new state hash.\n        bytes32 h = keccak256(abi.encodePacked(_hstate, _i, _firstturn, address(this)));\n        bytes memory prefix = \"\\x19Ethereum Signed Message:\\n32\";\n        h = keccak256(abi.encodePacked(prefix, h));\n \n        // Check all parties in channel have signed it.\n        for (uint i = 0; i < plist.length; i++) {\n            uint8 V = uint8(_sigs[i*3+0])+27;\n            bytes32 R = bytes32(_sigs[i*3+1]);\n            bytes32 S = bytes32(_sigs[i*3+2]);\n            verifySignature(plist[i], h, V, R, S);\n        }\n \n        // Cancel dispute\n        status = Status.ON;\n       \n        // Store new state!\n        bestRound = _i;\n        hstate = _hstate;\n        firstturn = _firstturn;\n       \n        // Refund everyone\n        refundAllBonds();\n \n        // Tell the world about the new state!\n        emit EventEvidence(bestRound, hstate);\n    }\n   \n    // Party in the channel can assert a new state.\n    function assertState(bytes32 _prevhstate, bytes32 _newhstate, bytes memory _input,  uint _command) onlyplayers payable public {\n        require(status == Status.DISPUTE);\n        require(assertion.prevhstate == _prevhstate);\n        require(assertion.sender != msg.sender); // Cannot assert two states in a row.\n       \n        // We can confirm we always have the bond from sender.\n        // We'll refund all bonds after dispute is resolved.\n        bonds[msg.sender] = bonds[msg.sender] + msg.value;\n        require(bonds[msg.sender] == bond);\n               \n        // Store command from sender!  \n        assertion = Assertion(msg.sender, hstate, _newhstate, _input, _command);\n               \n        // New deadline\n        deadline = block.number + disputePeriod;\n        emit EventAssert(msg.sender, _prevhstate, _newhstate, _command, _input);\n    }\n \n     // Trigger the dispute\n    // Missing _prevhstate as we'll use the one already in the contract\n    function triggerdispute() onlyplayers payable public {\n       \n        // Make sure dispute process is not already active\n        require( status == Status.ON );\n        status = Status.DISPUTE;\n        deadline = block.number + disputePeriod;\n    }\n   \n    // Trigger the dispute\n    // Missing _prevhstate as we'll use the one already in the contract\n    function triggerdispute(bytes memory _input, bytes32 _newhstate, uint _command) onlyplayers payable public {\n       \n        // Make sure dispute process is not already active\n        require( status == Status.ON );\n        require( firstturn == msg.sender );\n        status = Status.DISPUTE;\n       \n        // Dummy assertion - overwritten in AssertState\n        assertion = Assertion(address(this), 0,0,_input,0);\n \n        // Throws if state cannot be asserted.\n        assertState(hstate, _newhstate, _input, _command);\n    }\n \n    // Send old state, and the index for submitted command.\n    // This is not PISA friendly. Ideally PISA will have a signed message from the honest party with PISA's address in it.\n    // i.e. to stop front-running attacks.\n    // Can easily be fixed (note: this means no more state privacy for PISA)\n    function challengeCommand(bytes memory _oldstate) onlyplayers public {\n        require(status == Status.DISPUTE);\n        // Asserter cannot challenge their own command\n        require(assertion.sender != msg.sender);\n       \n        // hstate is either accepted by all parties, or it was\n        // extended as \"correct\" by the asserter\n        require(assertion.prevhstate == keccak256(abi.encodePacked(_oldstate)));\n       \n        // Fetch us new state\n        // Note: we assume the input includes a digital signature\n        // from the party executing this command\n        bytes32 newhstate;\n \n        (newhstate) = app.transition(msg.sender, _oldstate, assertion.input, assertion.cmd);\n       \n        // Is this really the new state?\n        // Can the user really withdraw this amount?\n        if(newhstate != assertion.newhstate) {\n           \n            // Refund challenger\n            status = Status.PAYOUT;\n           \n        }\n    }\n   \n    // Sends honest party all coins + bond, if counterparty is caught cheating.\n    function payout() internal {\n                   \n        address payable notcheater;\n           \n        // Get honest party's address.\n        if(assertion.sender == plist[0]) {\n            notcheater = plist[1];\n        } else if(assertion.sender == plist[1]) {\n            notcheater = plist[0];\n        }\n       \n        // Send all coins (including bonds) back to non-cheater.  \n        notcheater.transfer(address(this).balance);\n   \n    }\n   \n    // The app has reached the terminal state. Its state should just be a balance.\n    function resolve(uint balance1, uint balance2) onlyplayers public {\n       \n        // If the final state was reached via dispute process,\n        // Make sure the counterparty accepts it (i.e. the one who didnt do an assertion)\n        if(status == Status.DISPUTE) {\n            // Must be accepted by the counterparty\n            require(msg.sender != assertion.sender);\n        } else {\n            require(status == Status.ON);\n        }\n       \n        // In the app - the final state is \"balance1,balance2\".\n        require(hstate == keccak256(abi.encodePacked(balance1, balance2)));\n       \n        // There was no response from a party\n        // i.e. both parties need to use \"setstate\" or finish protocol via state assertions.\n        status = Status.PAYOUT;\n        payout();\n \n        emit EventTimeout(bestRound);\n    }\n   \n   \n    function timeout() onlyplayers public {\n        require(block.number >= deadline);\n        require(status == Status.DISPUTE);\n       \n        // There was no response from a party\n        // i.e. both parties need to use \"setstate\" or finish protocol via state assertions.\n        status = Status.PAYOUT;\n        payout();\n \n        emit EventTimeout(bestRound);\n    }\n   \n    // Refund all bonds - only callable when resolving dispute\n    function refundAllBonds() internal {\n               \n        // Refund all bonds\n        for(uint k=0; k<plist.length; k++) {\n           \n            // How much do we send?\n            uint toSend = bonds[plist[k]];\n            bonds[plist[k]] = 0;\n           \n            // Send it!\n            plist[k].transfer(toSend); //throws if bad\n        }\n   \n        // Delete last stored command\n        delete assertion;\n    }\n       \n    // Helper function to verify signatures\n    function verifySignature(address pub, bytes32 h, uint8 v, bytes32 r, bytes32 s) public pure {\n        address _signer = ecrecover(h,v,r,s);\n        if (pub != _signer) revert();\n    }\n   \n   \n}",
  "sourcePath": "/home/chris/dev/stateAssertions/contracts/StateAssertionsChannel.sol",
  "compiler": {
    "name": "solc",
    "version": "0.5.0+commit.1d4f565a.Emscripten.clang"
  },
  "schemaVersion": "3.0.1",
  "updatedAt": "2019-01-11T10:19:29.671Z",
  "devdoc": {
    "methods": {}
  },
  "userdoc": {
    "methods": {}
  }
}